{
  "_format": "hh-sol-artifact-1",
  "contractName": "PrivateAirdrop",
  "sourceName": "contracts/PrivateAirdrop.sol",
  "abi": [
    {
      "inputs": [
        {
          "internalType": "contract IERC20",
          "name": "_airdropToken",
          "type": "address"
        },
        {
          "internalType": "uint256",
          "name": "_amountPerRedemption",
          "type": "uint256"
        },
        {
          "internalType": "contract IPlonkVerifier",
          "name": "_verifier",
          "type": "address"
        },
        {
          "internalType": "bytes32",
          "name": "_root",
          "type": "bytes32"
        }
      ],
      "stateMutability": "nonpayable",
      "type": "constructor"
    },
    {
      "anonymous": false,
      "inputs": [
        {
          "indexed": true,
          "internalType": "address",
          "name": "previousOwner",
          "type": "address"
        },
        {
          "indexed": true,
          "internalType": "address",
          "name": "newOwner",
          "type": "address"
        }
      ],
      "name": "OwnershipTransferred",
      "type": "event"
    },
    {
      "inputs": [],
      "name": "airdropToken",
      "outputs": [
        {
          "internalType": "contract IERC20",
          "name": "",
          "type": "address"
        }
      ],
      "stateMutability": "view",
      "type": "function"
    },
    {
      "inputs": [],
      "name": "amountPerRedemption",
      "outputs": [
        {
          "internalType": "uint256",
          "name": "",
          "type": "uint256"
        }
      ],
      "stateMutability": "view",
      "type": "function"
    },
    {
      "inputs": [
        {
          "internalType": "bytes",
          "name": "proof",
          "type": "bytes"
        },
        {
          "internalType": "bytes32",
          "name": "nullifierHash",
          "type": "bytes32"
        }
      ],
      "name": "collectAirdrop",
      "outputs": [],
      "stateMutability": "nonpayable",
      "type": "function"
    },
    {
      "inputs": [
        {
          "internalType": "bytes32",
          "name": "",
          "type": "bytes32"
        }
      ],
      "name": "nullifierSpent",
      "outputs": [
        {
          "internalType": "bool",
          "name": "",
          "type": "bool"
        }
      ],
      "stateMutability": "view",
      "type": "function"
    },
    {
      "inputs": [],
      "name": "owner",
      "outputs": [
        {
          "internalType": "address",
          "name": "",
          "type": "address"
        }
      ],
      "stateMutability": "view",
      "type": "function"
    },
    {
      "inputs": [],
      "name": "renounceOwnership",
      "outputs": [],
      "stateMutability": "nonpayable",
      "type": "function"
    },
    {
      "inputs": [],
      "name": "root",
      "outputs": [
        {
          "internalType": "bytes32",
          "name": "",
          "type": "bytes32"
        }
      ],
      "stateMutability": "view",
      "type": "function"
    },
    {
      "inputs": [
        {
          "internalType": "address",
          "name": "newOwner",
          "type": "address"
        }
      ],
      "name": "transferOwnership",
      "outputs": [],
      "stateMutability": "nonpayable",
      "type": "function"
    },
    {
      "inputs": [
        {
          "internalType": "bytes32",
          "name": "newRoot",
          "type": "bytes32"
        }
      ],
      "name": "updateRoot",
      "outputs": [],
      "stateMutability": "nonpayable",
      "type": "function"
    }
  ],
  "bytecode": "0x60806040523480156200001157600080fd5b506040516200124638038062001246833981810160405281019062000037919062000219565b620000576200004b620000f160201b60201c565b620000f960201b60201c565b83600160006101000a81548173ffffffffffffffffffffffffffffffffffffffff021916908373ffffffffffffffffffffffffffffffffffffffff1602179055508260028190555081600360006101000a81548173ffffffffffffffffffffffffffffffffffffffff021916908373ffffffffffffffffffffffffffffffffffffffff16021790555080600481905550505050506200035d565b600033905090565b60008060009054906101000a900473ffffffffffffffffffffffffffffffffffffffff169050816000806101000a81548173ffffffffffffffffffffffffffffffffffffffff021916908373ffffffffffffffffffffffffffffffffffffffff1602179055508173ffffffffffffffffffffffffffffffffffffffff168173ffffffffffffffffffffffffffffffffffffffff167f8be0079c531659141344cd1fd0a4f28419497f9722a3daafe3b4186f6b6457e060405160405180910390a35050565b600081519050620001ce81620002f5565b92915050565b600081519050620001e5816200030f565b92915050565b600081519050620001fc8162000329565b92915050565b600081519050620002138162000343565b92915050565b600080600080608085870312156200023057600080fd5b60006200024087828801620001d4565b9450506020620002538782880162000202565b93505060406200026687828801620001eb565b92505060606200027987828801620001bd565b91505092959194509250565b60006200029282620002cb565b9050919050565b6000819050919050565b6000620002b08262000285565b9050919050565b6000620002c48262000285565b9050919050565b600073ffffffffffffffffffffffffffffffffffffffff82169050919050565b6000819050919050565b620003008162000299565b81146200030c57600080fd5b50565b6200031a81620002a3565b81146200032657600080fd5b50565b6200033481620002b7565b81146200034057600080fd5b50565b6200034e81620002eb565b81146200035a57600080fd5b50565b610ed9806200036d6000396000f3fe608060405234801561001057600080fd5b50600436106100935760003560e01c8063715018a611610066578063715018a61461011e5780637f0d7159146101285780638da5cb5b14610146578063ebf0c71714610164578063f2fde38b1461018257610093565b8063213e0b171461009857806321ff9970146100b457806338c86911146100d05780634d06068a14610100575b600080fd5b6100b260048036038101906100ad9190610989565b61019e565b005b6100ce60048036038101906100c99190610960565b610538565b005b6100ea60048036038101906100e59190610960565b6105be565b6040516100f79190610c48565b60405180910390f35b6101086105de565b6040516101159190610cb7565b60405180910390f35b610126610604565b005b61013061068c565b60405161013d9190610d52565b60405180910390f35b61014e610692565b60405161015b9190610c04565b60405180910390f35b61016c6106bb565b6040516101799190610c63565b60405180910390f35b61019c6004803603810190610197919061090e565b6106c1565b005b6005600082815260200190815260200160002060009054906101000a900460ff16156101ff576040517f08c379a00000000000000000000000000000000000000000000000000000000081526004016101f690610cf2565b60405180910390fd5b6000600367ffffffffffffffff811115610242577f4e487b7100000000000000000000000000000000000000000000000000000000600052604160045260246000fd5b6040519080825280602002602001820160405280156102705781602001602082028036833780820191505090505b50905060045460001c816000815181106102b3577f4e487b7100000000000000000000000000000000000000000000000000000000600052603260045260246000fd5b6020026020010181815250508160001c816001815181106102fd577f4e487b7100000000000000000000000000000000000000000000000000000000600052603260045260246000fd5b6020026020010181815250503373ffffffffffffffffffffffffffffffffffffffff168160028151811061035a577f4e487b7100000000000000000000000000000000000000000000000000000000600052603260045260246000fd5b602002602001018181525050600360009054906101000a900473ffffffffffffffffffffffffffffffffffffffff1673ffffffffffffffffffffffffffffffffffffffff16631e8e1e138585846040518463ffffffff1660e01b81526004016103c593929190610c7e565b60206040518083038186803b1580156103dd57600080fd5b505afa1580156103f1573d6000803e3d6000fd5b505050506040513d601f19601f820116820180604052508101906104159190610937565b610454576040517f08c379a000000000000000000000000000000000000000000000000000000000815260040161044b90610d12565b60405180910390fd5b60016005600084815260200190815260200160002060006101000a81548160ff021916908315150217905550600160009054906101000a900473ffffffffffffffffffffffffffffffffffffffff1673ffffffffffffffffffffffffffffffffffffffff1663a9059cbb336002546040518363ffffffff1660e01b81526004016104df929190610c1f565b602060405180830381600087803b1580156104f957600080fd5b505af115801561050d573d6000803e3d6000fd5b505050506040513d601f19601f820116820180604052508101906105319190610937565b5050505050565b6105406107b9565b73ffffffffffffffffffffffffffffffffffffffff1661055e610692565b73ffffffffffffffffffffffffffffffffffffffff16146105b4576040517f08c379a00000000000000000000000000000000000000000000000000000000081526004016105ab90610d32565b60405180910390fd5b8060048190555050565b60056020528060005260406000206000915054906101000a900460ff1681565b600160009054906101000a900473ffffffffffffffffffffffffffffffffffffffff1681565b61060c6107b9565b73ffffffffffffffffffffffffffffffffffffffff1661062a610692565b73ffffffffffffffffffffffffffffffffffffffff1614610680576040517f08c379a000000000000000000000000000000000000000000000000000000000815260040161067790610d32565b60405180910390fd5b61068a60006107c1565b565b60025481565b60008060009054906101000a900473ffffffffffffffffffffffffffffffffffffffff16905090565b60045481565b6106c96107b9565b73ffffffffffffffffffffffffffffffffffffffff166106e7610692565b73ffffffffffffffffffffffffffffffffffffffff161461073d576040517f08c379a000000000000000000000000000000000000000000000000000000000815260040161073490610d32565b60405180910390fd5b600073ffffffffffffffffffffffffffffffffffffffff168173ffffffffffffffffffffffffffffffffffffffff1614156107ad576040517f08c379a00000000000000000000000000000000000000000000000000000000081526004016107a490610cd2565b60405180910390fd5b6107b6816107c1565b50565b600033905090565b60008060009054906101000a900473ffffffffffffffffffffffffffffffffffffffff169050816000806101000a81548173ffffffffffffffffffffffffffffffffffffffff021916908373ffffffffffffffffffffffffffffffffffffffff1602179055508173ffffffffffffffffffffffffffffffffffffffff168173ffffffffffffffffffffffffffffffffffffffff167f8be0079c531659141344cd1fd0a4f28419497f9722a3daafe3b4186f6b6457e060405160405180910390a35050565b60008135905061089481610e5e565b92915050565b6000815190506108a981610e75565b92915050565b6000813590506108be81610e8c565b92915050565b60008083601f8401126108d657600080fd5b8235905067ffffffffffffffff8111156108ef57600080fd5b60208301915083600182028301111561090757600080fd5b9250929050565b60006020828403121561092057600080fd5b600061092e84828501610885565b91505092915050565b60006020828403121561094957600080fd5b60006109578482850161089a565b91505092915050565b60006020828403121561097257600080fd5b6000610980848285016108af565b91505092915050565b60008060006040848603121561099e57600080fd5b600084013567ffffffffffffffff8111156109b857600080fd5b6109c4868287016108c4565b935093505060206109d7868287016108af565b9150509250925092565b60006109ed8383610be6565b60208301905092915050565b610a0281610dc8565b82525050565b6000610a1382610d7d565b610a1d8185610d95565b9350610a2883610d6d565b8060005b83811015610a59578151610a4088826109e1565b9750610a4b83610d88565b925050600181019050610a2c565b5085935050505092915050565b610a6f81610dda565b82525050565b610a7e81610de6565b82525050565b6000610a908385610da6565b9350610a9d838584610e3e565b610aa683610e4d565b840190509392505050565b610aba81610e1a565b82525050565b6000610acd602683610db7565b91507f4f776e61626c653a206e6577206f776e657220697320746865207a65726f206160008301527f64647265737300000000000000000000000000000000000000000000000000006020830152604082019050919050565b6000610b33601883610db7565b91507f41697264726f7020616c72656164792072656465656d656400000000000000006000830152602082019050919050565b6000610b73601983610db7565b91507f50726f6f6620766572696669636174696f6e206661696c6564000000000000006000830152602082019050919050565b6000610bb3602083610db7565b91507f4f776e61626c653a2063616c6c6572206973206e6f7420746865206f776e65726000830152602082019050919050565b610bef81610e10565b82525050565b610bfe81610e10565b82525050565b6000602082019050610c1960008301846109f9565b92915050565b6000604082019050610c3460008301856109f9565b610c416020830184610bf5565b9392505050565b6000602082019050610c5d6000830184610a66565b92915050565b6000602082019050610c786000830184610a75565b92915050565b60006040820190508181036000830152610c99818587610a84565b90508181036020830152610cad8184610a08565b9050949350505050565b6000602082019050610ccc6000830184610ab1565b92915050565b60006020820190508181036000830152610ceb81610ac0565b9050919050565b60006020820190508181036000830152610d0b81610b26565b9050919050565b60006020820190508181036000830152610d2b81610b66565b9050919050565b60006020820190508181036000830152610d4b81610ba6565b9050919050565b6000602082019050610d676000830184610bf5565b92915050565b6000819050602082019050919050565b600081519050919050565b6000602082019050919050565b600082825260208201905092915050565b600082825260208201905092915050565b600082825260208201905092915050565b6000610dd382610df0565b9050919050565b60008115159050919050565b6000819050919050565b600073ffffffffffffffffffffffffffffffffffffffff82169050919050565b6000819050919050565b6000610e2582610e2c565b9050919050565b6000610e3782610df0565b9050919050565b82818337600083830152505050565b6000601f19601f8301169050919050565b610e6781610dc8565b8114610e7257600080fd5b50565b610e7e81610dda565b8114610e8957600080fd5b50565b610e9581610de6565b8114610ea057600080fd5b5056fea26469706673582212202ba0e1fa6c7fc777980050eac1a804ba09795a982a056a85c28cd12a43caa71964736f6c63430008000033",
  "linkReferences": {},
  "deployedLinkReferences": {}
}